:020000040000fa
:10000000f01f002049880000575300005b6a000081
:1000100000000000000000000000000000000000e0
:10002000000000000000000000000000e7470000a2
:100030000000000000000000e7470000e747000064
:10004000e7470000e7470000e7470000e7470000f8
:1000500019900000e7470000e7470000e74700006d
:1000600071490000e7470000e7470000000000007a
:100070000000000081960000e7470000e74700000d
:10008000e7470000e7470000e747000000000000e6
:1000900000000000e7470000e7470000e7470000d6
:0400a000e74700002e
:020000040000fa
:1000a400f8b5c046f8bc08bc9e467047e18700001e
:1000b400f8b5c046f8bc08bc9e467047b987000036
:020000040000fa
:1000c4000023f0b593b00a93243343430692d14af4
:1000d4000400d318da6803231a4005910492012a14
:1000e4001ed044230793023b0393253b1426002789
:1000f40066431c2200210ba8029309f0dbfdc64dc8
:1001040006abdf73735d452b00d1ede11fd80d2bda
:1001140000d14de10ad80c2b00d17ce013b0f0bd26
:1001240014230793043b03930b3bdfe70e2b00d10f
:10013400b0e1442bf2d1ae19b0789a380428edd846
:1001440009f0ccfdcf02ecffe90204031a03482bab
:1001540000d139e223d8462b00d1f1e1472bddd180
:10016400ad19ab78a42bd9d1ac4809f0d4fd012149
:10017400200008f0e5fcaa4809f0cdfda94809f0e3
:10018400cafd3b003a001021200008f0b3ff039b96
:10019400029a1b021343a44a1343a522cde1492b1f
:1001a40000d143e24b2bb9d1ae19b378b22bb5d100
:1001b4001f21069b0b40072b00d18ce2082b00d09b
:1001c4006ae2964809f0a7fd0121200008f0b8fc76
:1001d400934809f0a0fd954809f09dfd0f2306a959
:1001e4005b1819000baa200008f00afd06abda7ba5
:1001f40004213b00200008f07dff0bae039b029a14
:100204001b021343884a134314226243ad18b322da
:10021400aa7000213ae0ae19b0782338042800d936
:100224007ce709f05bfd05007bff3c0056009e0067
:1002340024267a4809f06ffd0121200008f080fc93
:10024400774809f068fd7a4809f065fd3200624399
:10025400704b0f219b18db6820001b029b0f013b96
:100264005a425341734a5b421340734a9b180a93a0
:100274000122002309f0a0f9142301216343ed189e
:100284006b7bae7001336b736c4b0aae01936c4b9a
:10029400020000932000330002f008fe3ee75f48ae
:1002a40009f039fd0121200008f04afc5c4809f0fe
:1002b40032fd644809f02ffd2723220062491c20e7
:1002c40007f0fcfe14235c432d19e8731033ab7064
:1002d40024e7524809f01ffd0121200008f030fcfa
:1002e4004f4809f018fd594809f015fd14236343dc
:1002f400494ad518a97bc90730d50622544920009c
:1003040009f01bfd24236a7b6343132a16d8414a50
:100314005049d5182b8a504a282013402b8222009a
:10032400002307f0cbfe0235e877142254433a4bfe
:10033400029ae254039a1b199a70efe6354a474928
:10034400d318da6820001140802292030a43da604d
:10035400002320216b7303f0e9ffe6e70e21995493
:10036400dce62e4809f0d7fc0121200008f0e8fb68
:100374002b4809f0d0fc3a4809f0cdfc1423634320
:10038400e818827bd20710d5242262432149334ed8
:100394008a18d1680e40802189033143d160029ac2
:1003a400ea54039b837020212ce00e22ea54b5e624
:1003b4001a4809f0b0fc0121200008f0c1fb1848dc
:1003c40009f0a9fc274809f0a6fc6b46059a198b8d
:1003d400200007f03dfb012846d1242363430d4a46
:1003e4001e49d318da681140802252030a43da60a6
:1003f400ab199a7b5f73024208d0029a7255039a32
:100404001f219a70200003f091ff87e602227255a3
:10041400f6e7c046d80400203c050020448d0000c7
:100424004a8d00009a370000000046a1d53700002d
:100434007436000000d8ffff01a800ff0c250c262d
:10044400858b000097360000d17e0000bd36000089
:10045400411a000035970000ffefffffffffcfffb9
:10046400eb360000143700000121ab199a7b0a42d5
:1004740005d0029a1f317255039a9a70c2e70e2270
:1004840072555b7b132b00d948e60a00200006f066
:1004940055ff43e6cb4809f03efc0121200008f05b
:1004a4004ffbc94809f037fcc84809f034fcaa19c5
:1004b400537b132b04d80c237355173393702de6f9
:1004c4000823917bc2480b43937324236343c1499c
:1004d4005773cb18d9680840802189030143d96038
:1004e4000223735593705ee7ad19ab789f2b00d050
:1004f40014e6b44809f00ffc0121200008f020fba9
:10050400b14809f008fcb44809f005fc200009f0e2
:10051400b9f93900200007f00bfd3a003b00032134
:10052400200008f0e7fd049b013b5a425341ab4acb
:100534005b421340aa4a9b18a022aa70002668e6d0
:10054400ad19ab78a12b1ad0a32b00d0e6e59d48ba
:1005540009f0e1fb0121200008f0f2fa9a4809f0c1
:10056400dafba04809f0d7fb200009f099f8079bb3
:1005740022009d4907f0a2fda223e873a7e6914853
:1005840009f0c9fb0121200008f0dafa8e4809f0cd
:10059400c2fb964809f0bffb200009f073f939004b
:1005a400200007f0c5fc3a003b000d21200008f0b4
:1005b400a1fd049b013b5a4253418d4a5b421340c7
:1005c4008c4a9b18a222b8e7ab1904939b78a62bfc
:1005d40014d0a72b00d0a1e5029b039a7355049b6a
:1005e4007c4d9a7024236343ed18297e002900d1a1
:1005f40094e5200003f09afe2f768fe5714809f008
:100604008afb0121200008f09bfa6f4809f083fb64
:10061400794809f080fb3b003a000421200008f0ef
:1006240069fda823049a9370744b87e7ab1902936e
:100634009b78a92b0ed0ab2b00d06fe5390020009e
:1006440007f0aaff049b012b22d109337355103301
:10065400029a33e7a023059adb0512689a420ed169
:100664000121200007f098ffab23220064492d20cc
:1006740007f024fd14235c4396332d1927e60c223e
:100684006243604b9b182022997a0a439a72f1e7dd
:100694001f2373552633dbe7162b1fd18c264948bd
:1006a40009f039fb0121200008f04afa464809f014
:1006b40032fb554809f02ffb7600631c5e43534b15
:1006c40009360222f6180f210123200008f012fd3a
:1006d4004f4a104392e53e0038008fe50026300073
:1006e4008ce5384809f017fb0121200008f028faae
:1006f400354809f010fb474809f00dfb0023082199
:100704001a00200008f0f6fc14236343ed189b2321
:10071400ab70414b12e72b4809f0fdfa0121200090
:1007240008f00efa284809f0f6fa3c4809f0f3fa02
:10073400200008f0b5ff9d232200394907f0befcd4
:1007440014235c432d1928748733c0e51d4809f030
:10075400e2fa0121200008f0f3f91b4809f0dbfa62
:10076400304809f0d8fa14236343029a0f21ea545b
:10077400ed18039bab7045e6124809f0ccfa012151
:10078400200008f0ddf9104809f0c5fa264809f000
:10079400c2fa8c204000069b60435a041b4b520f44
:1007a4001918d23160300a70c0189200059909f006
:1007b400a9fa14236343029a0e21ea54ed18039b09
:1007c400ab701fe6448d00004a8d00002c370000fa
:1007d400ffffcfffd804002044370000e9cae9cf67
:1007e40019371e4479370000d17e00005d370000c0
:1007f4000000eacf46a31e44bb37000048a746a129
:10080400559c00006c050020fe370000000000200d
:10081400000018802c380000449c46a14738000092
:0c082400699c0000653800008638000068
:020000040000fa
:10083000f0b589b004000692029106f0affc1423d3
:100840006343a94a05909d5c0127412d0bd00c2dd7
:1008500003d02f00433f7b425f412b000c3b5a42a9
:100860005a41039200e003972422002162439f4be8
:1008700004919b18da6853015b0f032b03d16b1fa4
:10088000594259410491059b012b17d10299db0371
:100890001940079112d16b461b7b01936b461e7c5e
:1008a000029b5904490f1f23002900d198e0029aa6
:1008b0001a40022a2ed003d8012a0dd009b0f0bd6b
:1008c000032a47d00f2af9d10c2d5cd1200008f063
:1008d000dbff079a0d21e9e2854809f01efa059928
:1008e000200008f02ff9834809f017fa824809f030
:1008f00014fa142363437c4d5b5d192b00d1c5e2d0
:100900001d2b00d1d6e2002f00d0d3e2200006f04c
:10091000d7fad3e7764809f000fa0599200008f0e5
:1009200011f9744809f0f9f9744809f0f6f914233b
:1009300063436d4a9b5c022b06d0052b01d0002f30
:10094000e4d0019b334302d0200008f09dff002239
:100950000321abe21d2d01d0052dafd1200007f002
:100960000ffc674b9842a9d1049b002b02d02000ba
:1009700008f08aff142254435b4b3532e2541b19b2
:1009800060329a709ae71d2d03d0052d01d0002ffb
:10099000bcd0019b334302d0200008f075ff069bba
:1009a0005b787f2b03d8200007f06efe86e7069b5e
:1009b0001b789b090ed18c2252006243514b9b182d
:1009c000b4331b889b07eed5142342225c43464b6d
:1009d000e25473e7002f00d170e79122412165e2d4
:1009e00002991940881e0291162800d966e709f07d
:1009f00077f917003500d70065ff5a018701990183
:100a000065ff65ffae01d700d50165ff65ff1202e6
:100a100065ff65ff65ff65ff65ff9901dd01f00179
:100a200014226243304b9b189b783c2b10d13048ea
:100a300009f073f90121200008f084f82d4809f02d
:100a40006cf9314809f069f9200008f01dff02e057
:100a5000422b00d05ae73f221c2127e21422624396
:100a6000214b9b189b781a003b3a012a18d8204842
:100a700009f053f90121200008f064f81d4809f03d
:100a80004cf9224809f049f98c22520062431d4b6f
:100a90009b1880220433d96f92010a43da67d3e7a7
:100aa0001a005e32d2b2012a34d8114809f035f961
:100ab0000121200008f046f80e4809f02ef91448ec
:100ac00009f02bf9200008f0dffe24226243074bd7
:100ad0009b180322db681340012b02d1013a11005d
:100ae000e4e137221921e1e13c050020d80400208f
:100af000448d00004a8d0000e84d0000064e0000c5
:100b00008813000000000020214e0000524e00001b
:100b10006f4e00001a000221573a8a43d2b2002acf
:100b20001ed1cd4809f0f9f80121200008f00af89b
:100b3000ca4809f0f2f8ca4809f0eff8200008f0b6
:100b4000a3fe24226243c74b9b180322db68134099
:100b5000012b02d10d320521a8e142221d21a5e180
:100b60004a3b8b43dbb2002b00d0cfe6ba4809f0fa
:100b7000d4f80121200007f0e5ffb84809f0cdf8ce
:100b8000b94809f0caf8200008f07efe200008f0fd
:100b90008bff2521021e00d188e14f22232185e110
:100ba00014266643b14fbd19ab7819003b390129b2
:100bb0003dd8200008f068fe0122ab7b134232d002
:100bc000029b0c2b0ed10f332200a949642007f0a1
:100bd00077faa84b24011c191d23a071f355253366
:100be000ab706be6029b042b00d067e68c225200b0
:100bf0006243a14b98489b1880220433d96fd201dd
:100c00000a43da671d23f3552533ab7009f085f8e5
:100c10000121200007f096ff904809f07ef89748e0
:100c200009f07bf84ae61923f3551e33d8e719007b
:100c3000fd204a3901421ad1200008f025fe029b0e
:100c4000042b0ed1844809f068f80121200007f038
:100c500079ff824809f061f8894809f05ef84d2370
:100c6000bee7029b0c2b00d028e64233b8e78c206d
:100c700040006043804909180320496a0140022965
:100c800000d043e6024200d040e66533dbb2012be0
:100c900000d93be6200008f005fe029b042b00d0a3
:100ca0000ce699339ce714226243704b9b189b78a7
:100cb000402b0fd18c22520062436f4b20009b18b7
:100cc00080220433d96f12020a43da6708f0dcfd90
:100cd000412243e7502b00d018e65f4809f01df889
:100ce0000121200007f02eff5c4809f016f8654846
:100cf00009f013f8200008f0c7fd00222421d5e0f8
:100d0000052d02d0002f00d100e6019b334302d015
:100d1000200008f0b9fd14225443544b123ae25417
:100d20001b192ee6052d04d01d2d02d0002f00d159
:100d3000ece5019b334302d0200008f0a5fd14220e
:100d400054434a4b3732e2541b19673219e61d2dc2
:100d500004d0052d02d0002f00d1d7e53e4808f081
:100d6000dcff0121200007f0edfe3c4808f0d5ff34
:100d7000454808f0d2ff019b334302d0200008f021
:100d800083fd142321216343384a99542423634368
:100d9000344ce41808230134e3778fe514225443dc
:100da000324b3132e2541b195a32eae5052d02d09a
:100db000002f00d1aae5019b334302d0200008f0a8
:100dc00063fd14225443294b0132e2541b19203293
:100dd000d7e5052d01d0002f0cd0019b334302d065
:100de000200008f051fd14225443204be2541b19fb
:100df0001f32c6e51d2d00d088e5039b002b02d0d5
:100e0000200008f041fd14225443184b0432e254f0
:100e10001b192532b5e5412d00d14fe5102d00d12c
:100e20004ce5202d05d1200008f02efd4b22290095
:100e30003ce02b002c3b012b00d83fe5442d04d196
:100e4000200008f02ffd9d22f1e7052d00d135e5aa
:100e50001d2d00d132e559e5448d00004a8d00007a
:100e6000904e0000d8040020b64e00003c05002043
:100e7000419c00005005002000000020d74e0000db
:100e8000f44e0000154f0000334f0000039b002b71
:100e900007d0200008f0f8fc14236343eb5c192b07
:100ea0000bd1200008f0f0fc00221a21200007f0ee
:100eb000e3ff03e5039b002bebd114235c430633d4
:040ec0002b55fbe4cf
:020000040000fa
:100ec400f0b5040085b005f041f908f099febf4d76
:100ed40023010293eb189a781b7a0392019308f08a
:100ee40099fe2301585d0c2814d808f001ff0d0069
:100ef4001300130013001300130015007b00c80037
:100f04001300610113000802200003f0dbfa200043
:100f140006f026fc05b0f0bd2301ee187778012f0a
:100f24002dd07db2002d0cd0022ff3d103232c2120
:100f34007370200003f0faf90121200003f0f6f9a0
:100f4400e8e7a34808f0e7fe0121200007f0f8fdd8
:100f5400a04808f0e0fea04808f0ddfe2422624329
:100f64009e4b29009b18dd802a00200004f0d2fb50
:100f74002900200006f0b2fc01237370cae7702632
:100f8400019b33401e1ec5d1914808f0c4fe3900b0
:100f94002427200007f0d4fd8e4808f0bcfe6743e8
:100fa4008f4808f0b8fe3100200007f0dbfc8b4bc3
:100fb4008c49df19fa883300200000f081ffb97ce6
:100fc400033631400ad1200007f00efb3100200027
:100fd40006f0c4fa6021200007f006fb029bed181e
:100fe400022328e02301ed186e78022e25d0032e6b
:100ff40028d0002e00d08de7754808f08cfe012122
:10100400200007f09dfd734808f085fe764808f03f
:1010140082fe24226243714b72499b18da882000b5
:10102400330000f04dff0323220096206f4907f0a0
:1010340045f8a87101236b706ce7062322006c4904
:101044000a20f4e77026019b33401e00102b00d0c9
:1010540060e75f4808f05ffe0121200007f070fda3
:101064005c4808f058fe634808f055fe32006249b7
:10107400200008f00dfac2239b002b804ae72301cd
:10108400ee187778052f42d0062f59d0032f00d0c1
:1010940040e74f48242508f03efe0121200007f0d8
:1010a4004ffd4c4808f037fe544808f034fe200049
:1010b40007f020f96543494b02005d19e88049496e
:1010c400200004f027fb0121200006f007fcea8839
:1010d40001234449200000f0f3fe042371790398ae
:1010e4007370f2793c33814208d19a43f2714449d6
:1010f4001022200008f0e2f902211ee713434049c0
:10110400f3711022200008f0c3f9390015e73048c4
:1011140008f001fe0121200007f012fd2d4808f01f
:10112400fafd384808f0f7fd200005f0dffd06233e
:1011340022002e490a2006f0c1ff0723b0711ce7e4
:10114400234808f0e8fd0121200007f0f9fc2148bc
:1011540008f0e1fd2c4808f0defd7023019a1a42e4
:1011640003d00121200007f0fdfb2422002162436b
:101174001a4b20009b18d9800a0004f0cbfa0c23e8
:10118400019a1a4205d130222301eb18d979114270
:101194000bd00021200002f049fe3022029bed1802
:1011a400eb799343eb71072345e706221a80b1e6f6
:1011b4002301eb185878042800d9abe608f08efd1b
:1011c4002600f6006b00aafe8500c04650050020ec
:1011d4000c96000012960000a8500000d8040020cd
:1011e400c85000008813000005510000919c0000c5
:1011f400f19a000025510000010800006051000030
:10120400210800007e510000a351000024268248da
:1012140008f081fd0121200007f092fc7f4808f0ce
:101224007afd7f4808f077fd0021200006f056fb88
:101234000021200007f0d8f903226643794b9e1958
:10124400f3681340012b0fd00027200005f04efd5a
:101254003a0039002000f78004f05cfa03233900d7
:101264001a00200006f06cfc0c23019a1a4205d1e6
:101274002301eb18da7930231a4209d030212301f3
:10128400ea18d37920008b43d371002102f0cefdfc
:10129400029bed18cee67026019b33401e1e00d043
:1012a40038e61900200007f05dfb3100200007f04c
:1012b40066fdfa20042322005b49400006f0fefe8e
:1012c400029bed18a8710323b5e624226243554b13
:1012d4009b18da6803231a40012a07d0012200214f
:1012e400200006f02dfc06232201ab5220006021d1
:1012f40007f07af90121200007f041fd0ae62301f5
:10130400eb185878042800d904e608f0e7fc050037
:101314004f00550003fe7f0024273f4808f0fbfce4
:101324000121200007f00cfc3c4808f0f4fc3f4885
:1013340008f0f1fc0021200006f0d0fa67430021f8
:10134400200007f051f9200005f0d0fc354bdf19df
:101354000323fe681e4011d1330032003100200007
:10136400fe8000f0adfdfa883100200004f0d2f9cf
:10137400032331001a00200006f0e2fb0c23019a3b
:101384001a4205d130222301eb18d97911420ad02f
:1013940030222301ed18eb7900219343eb712000f7
:1013a40002f044fd46e602225a70b3e50c23019a8a
:1013b4001a4200d0aee511e67026019b33401e1e92
:1013c40000d0a7e51900200007f0d9fc3100200067
:1013d40007f0c8fa3100200007f006f9242262431e
:1013e400104b03369b18db6833420bd1fa200423dd
:1013f40022000d49400006f061fe029bed18a87121
:101404006e7087e5029bed18042314e62301ed18a2
:1014140005232b216b7090e50c96000012960000ba
:10142400ca510000d8040020919c0000ea51000039
:020000040000fa
:10143400242303224343f0b5c84f85b0fb18db686f
:1014440004001340012b17d044231d260393023bb1
:10145400029314231a006243c14d505d20380828ba
:1014640075d808f045fc0f00b200dc000c01340113
:101474005b01a501f0015a0214230393043b029378
:101484000526e6e76343eb189878493805285ed8c3
:1014940008f01afc0326425d5f78b24808f03bfc72
:1014a4000121200007f04cfbaf4808f034fcaf48a2
:1014b40008f031fc00230b211a00200007f01afe6b
:1014c40014236343ed184c230021ab70a84b019304
:1014d400a84b020000932000002301f0e7fc36e053
:1014e400a04808f018fc0121200007f029fb9e48c1
:1014f40008f011fca04808f00efc200008f0d0f819
:101504004b2322009d4906f0d9fd14235c432d1979
:10151400e8733833ab701ae0924808f0fcfb012101
:10152400200007f00dfb904808f0f5fb944808f004
:10153400f2fb0321200007f069ff14231721634302
:10154400ee54ed18029bab70200002f0effe05b0e4
:10155400f0bd844808f0dffb0121200007f0f0fa19
:10156400814808f0d8fb874808f0d5fb0321200008
:1015740007f04cff14236343ee54ed18029bab7049
:101584001521e1e7774808f0c6fb0121200007f0a8
:10159400d7fa754808f0bffb7b4808f0bcfb220073
:1015a40003237a49642006f089fd24236343ff184a
:1015b4000137f8770321200007f028ff14235c4348
:1015c400029b2e552c19a370c1e7664808f0a3fbb3
:1015d4000121200007f0b4fa634808f09cfb6c4832
:1015e40008f099fb1621200002f0a0fe0021200043
:1015f40006f076f8012806d114235c430e332b55ec
:101604002c192f33dfe724236343ff1815233b767c
:10161400013b5c4334332b552c195e33d3e76343ce
:10162400eb189b78512b00d091e74e4808f073fbe0
:101634000121200007f084fa4b4808f06cfb554860
:1016440008f069fb002303211a00200007f052fd73
:10165400242380226343ff18fb689202134025224f
:10166400002b01d04f2323221b0213434a4a00219b
:10167400134314226243ad185222aa7027e763432e
:10168400eb189b784f2b00d061e7364808f043fbfa
:101694000121200007f054fa334808f03cfb3f488e
:1016a40008f039fb24236343ff18fb6832209b06b0
:1016b4009b0f012b00d06430039b2200384906f0b5
:1016c400fdfc14235c432d19e8733c3322e72548c1
:1016d40008f021fb0121200007f032fa224808f02b
:1016e4001afb304808f017fb0021200002f09efb93
:1016f4001423002280276343194d1849e8184273c4
:10170400243262438a18d168bf000f4380215e559a
:101714008902029b7940d160837031e7114808f057
:10172400fafa0121200007f00bfa0f4808f0f3fa47
:101734001d4808f0f0fa2000012102f077fb220096
:1017440000231a494b2006f0b9fc142326225c43db
:101754002b192a552d32d8739a70f8e6d804002034
:101764003c050020a9380000af380000b238000062
:10177400204a46a1858b0000ce380000559c00000d
:10178400ed3800000f39000031390000d19100001c
:101794005139000068390000000046a18c3900006e
:1017a400d17e0000b3390000cb390000c1900000a5
:1017b4006343ef180393bb78532b23d0552b00d0ee
:1017c400c5e6624808f0a7fa0121200007f0b8f93d
:1017d4005f4808f0a0fa5f4808f09dfa24226243ab
:1017e4005d4b20009b188022d96892024a40da603f
:1017f400002340217b7308f03ffa039bee54029bc5
:10180400bb70bde6200008f04df9002800d19ee62b
:10181400200008f037f84d4808f07dfa0121200037
:1018240007f08ef94a4808f076fa4c4808f073fa43
:10183400002306211a00200007f05cfc5423002139
:10184400bb70474b43e66343ef180393bb78572bb6
:1018540023d0582b3ad0562b00d078e63b4808f0da
:101864005afa0121200007f06bf9394808f053fabd
:101874003c4808f050fa200008f004f80121200048
:1018840006f056fb00230d211a00200007f094fef9
:1018940059230121bb70344b19e62c4808f03bfa5c
:1018a4000121200007f04cf9294808f034fa2f48a8
:1018b40008f031fa200007f0f3fe582322002c49e7
:1018c40006f0fcfb5923f873bb7040e61f4808f090
:1018d40022fa0121200007f033f91d4808f01bfa11
:1018e400244808f018fa2422032162431a4b9b1857
:1018f400db681a0d0a40012a0bd19b080b40012b0f
:1019040003d1039a2733ab5421e6200007f0bafb36
:101914001de6039bee54029bd6e70c4808f0fbf946
:101924000121200007f00cf9094808f0f4f91248e5
:1019340008f0f1f9002320001a00012104f058fef8
:1019440014235c43029b2e552d19e3e5a9380000ae
:10195400af380000003a0000d8040020e23900004b
:10196400265546a1213a000027572758473a000038
:0c197400559c0000703a0000963a0000fc
:020000040000fa
:10198000f0b50a268db002abf6180d230b25337087
:1019900002abed180400ff230291039200211c22e8
:1019a00005a82b7008f088f92a003100200008f003
:1019b0006ff83378c44d063b012b0fd814236343d3
:1019c000ea5c163a012a09d90021ea18d1721622d6
:1019d0000231ea542000153a05f0b2fc14231a0033
:1019e0006243a85c163809282ed808f083f90a004b
:1019f0002f0058008200aa00e30015014c01cb0122
:101a0000f301b24808f089f90121200007f09af8a3
:101a1000af4808f082f9af4808f07ff9200007f0de
:101a200067fa142311206343e9188a7b82438a737f
:101a30008c2252006243a84ca4180434e16fa74ad8
:101a40000a40e2671722ea540db0f0bd200006f00c
:101a500097fba34b07009842f6d13378082bf3d1bc
:101a60009a4808f05af90121200007f06bf89848cd
:101a700008f053f99b4808f050f9242262439a4b2e
:101a800020009b18da883900012300f01bfa142388
:101a90005c4305332b552c191e33a370d4e76343e5
:101aa000ed18ab783d2bcfd1884808f036f90121ed
:101ab000200007f047f8864808f02ff98b4808f017
:101ac0002cf9002301220c21200007f015fb060051
:101ad000200008f0f3f93e23ab70854b059001938d
:101ae000844b32000093002105ab200001f0e0f9a7
:101af000aae76343ee18b378372ba5d1734808f0f3
:101b00000cf90121200007f01df8714808f005f9d3
:101b1000794808f002f9f37a022b0dd8d220442339
:101b200022007649400006f0cbfaf07314235c43a0
:101b300024332d19ab7087e70121200006f024f92a
:101b4000f4e7624808f0e9f80121200006f0faff06
:101b50005f4808f0e2f86a4808f0dff824226243a0
:101b6000614b9b18db8a102b03d01121200002f05f
:101b7000dffb142600236643af19fb726b4620007f
:101b80009989029a00f0e8fb8c235b006343524c76
:101b9000e418e36f002b0bd1bb7bdb0704d51d23bf
:101ba000ab552533bb704fe71923ab551e33f9e70f
:101bb0001b23fae76343ed18ab78392b0dd03b2b91
:101bc00000d041e7200007f06dfd442322004b497f
:101bd00006f076fa3c23e873ace73c4808f09df841
:101be0000121200006f0aeff394808f096f845487c
:101bf00008f093f8002301220221200007f07cfa6c
:101c00008c2252006243344b06009b18db6f059315
:101c10003a23ab703c4b62e76343ed18ab783f2b44
:101c200000d011e7294808f078f80121200006f0db
:101c300089ff274808f071f82426344808f06df829
:101c40008c2166434900284b61439f19224bfa8837
:101c50005b18aa3319882000002300f033f9224bc7
:101c6000fa88f15832230903890d5943200003f003
:101c700053fdfa20442322002049400006f020fab8
:101c80004023e87356e76343ee18b378412b41d005
:101c9000422b00d0d8e60d4808f03ff80121200083
:101ca00006f050ff0a4808f038f8194808f035f8ef
:101cb000200005f00bff242363430b4ce4180023a2
:101cc000e3824333b370bfe63c05002004520000ba
:101cd0000a5200000d52000000000020ff1ffeff0e
:101ce000881300001e520000d8040020315200006a
:101cf0001d4246a1858b000052520000d17e00009b
:101d00007a520000975200001b3b46a1be520000d1
:101d1000f8520000624808f000f80121200006f0a7
:101d200011ff604807f0f9ff5f4807f0f6ff200059
:101d300007f0cafc0121b37b0b43b3738c235b0018
:101d400063435a4ef318d0331b78002b00d0002188
:101d5000200006f019f814236343ed1842230c21e8
:101d6000ab70200002f0e4fa8c235b006343f618aa
:101d70000436f36f1021db0300d465e6200002f087
:101d8000d7fa61e66343ef181e00bb78442b00d0fe
:101d90005ae6434807f0c1ff0121200006f0d2feb9
:101da000404807f0baff424807f0b7ff200007f0ad
:101db0006bfd1023ba7b20001343bb7300231a0072
:101dc000190004f017fcfb7a0133fb721f23ab559b
:101dd0002633e7e66343eb1898784538032800d9a3
:101de00032e607f073ff022836452d4807f095ffcd
:101df0000121200006f0a6fe2a4807f08eff2d489c
:101e000007f08bff14236343ed181023aa7b2000f7
:101e10001343ab7307f048fe002818d000212000c0
:101e200002f006f8002322002349192006f048f9a1
:101e30004623e8737ee6200007f036fe002800d037
:101e400002e6200007f020fd14235c432d194723f0
:101e500070e624226243194b20009b18da88184947
:101e6000002300f02ff814235c4334332d1961e66e
:101e7000200006f085f9011e00d0e5e5200006f0ff
:101e800073fd200006f088f8142310206343e9183e
:101e90008a7b82438a7316220d21ea546ee7c0467c
:101ea000045200000a520000e0520000000000202e
:101eb000125300002e5300006d950000d80400203e
:041ec0008813000083
:020000040000fa
:101ec400f0b589b0059324230291142103224343de
:101ed400b14c4143e318db6800251a400392af4a32
:101ee40007005218917b01220a40aa4204d05d01e6
:101ef4006d0f033d6b425d41a94b39015b18996835
:101f04001b7b090a1b060b430193002a00d1b1e095
:101f140024237b43e3181b890493029a6b1e13400a
:101f240024227a43a4186381029b002b0ad007f071
:101f340067fe70219a4b3a019b181a7a8a431a72e7
:101f440007f068fe00263800002106f018ff059b04
:101f540007969448b34200d1bde0029bb34200d13e
:101f6400b9e0242407f0d7fe0121380006f0e8fd8b
:101f74007c438d4807f0cffe8c4807f0ccfe864b9f
:101f84001c19237fb3420fd0a07e07f029fa8c22bc
:101f940052007a43864b87499b18b23318883a001b
:101fa400330006f08bf8a076002d68d024237b4301
:101fb400794aff269c586423600c3040584307f04c
:101fc40026fc8c235b007b43794a0390d31802934d
:101fd400d833187807f02cfb774905f003f8011c77
:101fe400039804f0ddfc06f045fd744a744b04f0dc
:101ff400ddf906f001f8019904f0d2fc07f086fb44
:1020040007ad28806420240a2640704307f0fffbb4
:10201400029b041cd933187807f00afb664904f0c4
:10202400e1ff011c201c04f0bbfc06f023fd634a05
:10203400634b04f0bbf905f0dfff019904f0b0fc39
:1020440007f064fb0423688007aa5e49380007f0a0
:10205400affb03225521380007f01afa3d24220071
:102064003800594907f069fe0121380006f087fe5f
:1020740009b0f0bd380006f081f804904de78c24d7
:1020840064007c43029807f0d3fa494b061c1c19e0
:102094002300d833187807f0cbfa474904f0a2ff9d
:1020a400311c04f07dfc06f0e5fc444a444b04f08a
:1020b4007df905f0a1ff019904f072fc07f026fbfd
:1020c40007add9342880207807f0b2fa3a4904f0f1
:1020d40089ff311ca7e707f01efe0121380006f036
:1020e4002ffd314807f017fe384807f014fe03228d
:1020f4005521380007f0e2f9029b002b42d0344b03
:10210400029a9a426cd0002d00d1d4e0242364209a
:102114007b43214a9d582b0adbb2584307f014fc39
:102124002c4a2d4b02f0b4fa244a254b04f03ef914
:1021340005f062ff019904f033fc2849041c04f003
:102144002ffc07f0e3fa0a2180b205f0edf889b21a
:10215400201c042900d8abe007f0d8fa01306d0c3c
:1021640084b2e8b26425684307f0eefb194a1a4bbf
:1021740002f08efa114a124b04f018f905f03cfff4
:10218400019948e00124039ba34200d067e72100a2
:10219400380006f0e7fb62e7d80400203c05002085
:1021a400500500200c96000012960000d87900001b
:1021b40000000020c19800000000c842ae47e17a48
:1021c40014ce4c40b40800001f080000fe79000043
:1021d40088130000666666666666ee3f000020416e
:1021e400039b012b5fd14b49019804f0d9fb4a4969
:1021f400041c04f0d5fb07f089fa0a2180b205f02b
:1022040093f889b2201c04294fd907f07ffa0130d2
:1022140084b24249019804f0c3fb3f49051c04f011
:10222400bffb07f073fa0a2180b205f07df889b28a
:10223400281c04296bd907f069fa013085b23848a3
:1022440007f069fd0121200006f07afc354e3000cc
:1022540007f061fd344807f05efd22003349380081
:1022640007f074fd049b029a0d24934200d8f6e60d
:10227400039b012b03d11900380006f073fb284897
:1022840007f049fd0121280006f05afc300007f050
:1022940042fd274807f03ffd2a002649380007f091
:1022a40055fd4d24dbe624499ee707f02ffaafe7fe
:1022b40007f02cfa53e7029807f038fb1f4a204b2b
:1022c40005000e0002f0e4f91e4a1f4b04f06ef8fc
:1022d40005f092fe019904f063fb0f49041c04f01d
:1022e4005ffb07f013fa0a2180b205f01df889b2ea
:1022f400201c042908d907f009fa013084b2134ad2
:10230400134b2800310033e707f000faf6e707f033
:10231400fdf993e7e5e6a4420000204167f0be42e0
:102324000c960000129600003d7a0000b2080000ee
:10233400287a0000b808000052c0984266666666b3
:102344006666ee3fae47e17a14ce4c40cdcccccca1
:04235400ccccf03fbe
:020000040000fa
:10235800f0b59fb0019002920e000e2200210fa846
:1023680007f0a6fc0e22002113a807f0a1fc8c237d
:10237800019a5b005343c8490327cd182a0001205e
:10238800d5321278d4081740920802400692019a72
:10239800044023305043c14a05941218d28a102aa7
:1023a8005dd18c24019b64005c43bb4e2100351930
:1023b8002b00d3331b7844319a00891917a802934c
:1023c80007f09efc019805f0a3fc2100d1352b787d
:1023d8002831079313ad89193b002a00079803f0a9
:1023e80027fc3b000faa17a9029803f021fc6b7881
:1023f800019a049346235343049a2f789b18083371
:102408009b00f618b668b30a03930fab0a93029bb6
:102418005c000fab1c199c424ad10fab03930023fd
:102428000493049b029a934200d0a2e00022029bec
:102438009a4200d18de00a9b13a85d7817aba900da
:10244800cb58002103939b0a0493079b994200d021
:1024580028e10a9b01320233d2b20a93e7e700244b
:1024680076044433760f58186c640299ac64ec64b3
:102478002c656c65ac65ec65b20007f041fc2b007f
:102488008c21d3331c704900b4428ad06b6c9b0feb
:102498000bd1019a804b4a439b18d3331a780132e7
:1024a8001a700134e4b20435eee700236b64f8e7f0
:1024b8001a78ba425bd35d7817aaa900895803989d
:1024c8008a0a4240920552d1b2058905900d91427f
:1024d8004dd3069b724a1f06059b0135002b3ad047
:1024e8008c23b4021440019a5b0053436a4a0a21c0
:1024f800d318c833188804f0d9fe80b2044380206a
:10250800730880040340280780251c432d052743b2
:1025180005433d438c230a21019a5b0053435e4add
:10252800019cd318b205920d4a431a3161435b48a6
:10253800dd6744180e500499e280013161750399f2
:102548001c0088053221800d4143aa34ac33218018
:102558001a801fb0f0bd80247308a4042340b4027d
:10256800144023431f4338432d070543d2e7023362
:1025780051e70026039b13ac5b789a000b9317abcb
:10258800d35808939b0a0c93079b9e4207d1049b40
:102598000133dbb20493039b0233039341e763786f
:1025a8000199099346234b4309993b4a5b18083321
:1025b8009b00d3189d68ab0a0d930c9ba90a4b404e
:1025c8009b0565d1089b01999f058c234b4309996d
:1025d800bf0d5b1858335b00d21810890a2104f02c
:1025e80065fe80b2874253d3ab059b0dbeb29f42b6
:1025f80000d99eb2069b0b9c1b060293059bad0e51
:102608000134002b38d08c23019a5b005343224ab3
:102618000a21d318c833188804f048fe87b28020ee
:10262800029b6d06800405401f432f432507802425
:1026380024052c432743b4023c438c23019a5b00b6
:102648005343154a0198d3180a2256431a32424373
:102658001249dc67089c88185450099a32210132c3
:102668004275c68018000d9aaa309205920d4a4309
:10267800ac3302801e806ce7029b24073b43802713
:102688006d06bf043d401c432c43b5022c43d4e7e0
:102698000136f6b2023477e700000020d8040020a3
:1026a80000fc0f004378019c089346236343089c71
:1026b80002301b190833344c9b00e3189e68049cb5
:1026c800b30a63409b055bd1069b304c1f06059bf4
:1026d8000135002b43d08c23019a5b0053432a4acf
:1026e8000a21d318c833188804f0e0fd039b80b290
:1026f800074398020440274380247608a404264010
:102708002c07c0252d053e43254335438c230a213c
:10271800019a5b0053431c4a019cd318039add6756
:102728009205920d4a431a3161431948039d441892
:102738000d500899e2800131617504991c008805e3
:102748003221800d4143aa3421801900ac310a801e
:1027580080220433d96f52020a43da67f9e6039bf1
:10276800b005800d9b021c40074327438024760850
:10277800a40426402d076400374325433d43c5e79d
:102788000131c9b261e6c0460000002000fc0f001c
:04279800d804002041
:020000040000fa
:10279c00f7b5cf4d030101935b5d0400012b2bd1e9
:1027ac000301eb185b78012b28d1242637006743f3
:1027bc000021200006f0aef8c64bdf19b87e06f0fb
:1027cc000bfe08230222bb76fb7f134000d13b7724
:1027dc0001226643c04b0027f318da80bd4b9e19cb
:1027ec00f07e06f0f9fd08237777f37607f004fa0c
:1027fc00777607f00bfa01e0062bd6d0242363433f
:10280c00b44ad318db7fdb0764d514236343b34a84
:10281c00d11889781f2902d09b5c162b5ad18c2396
:10282c005b006343ae4ad318dc331978ff2908d018
:10283c0024236343a748c318587f884201d300213f
:10284c0099778c235b006343d218db321378002119
:10285c002000ff2b63d0242666439e4a9619327fb4
:10286c009a425cd305f036f8200004f03bfa0023c2
:10287c009c4f3377380007f04afa0121200006f00c
:10288c005bf9994e300007f042fa984807f03ffa8e
:10289c002301ed1807234c216b700d3363438f4ad2
:1028ac003800995407f033fa0121200006f044f95e
:1028bc00300007f02cfa8e4807f029fa0821200086
:1028cc0001f030fd242301216343824ad318da7fbf
:1028dc008a43da77242565437e4b5d196b7e002b8a
:1028ec0000d1cae008277f4807f011fa0121200027
:1028fc0006f022f97c4807f00afa7e4807f007fa3e
:10290c006b7e3b421fd00621200001f00bfd061e02
:10291c0008d107f071f96e7607f078f9f7bd05f07c
:10292c00f9ffcfe7e87e06f057fd6e48ef7607f02b
:10293c00eef90121200006f0fff86b4807f0e7f9eb
:10294c006d4807f0e4f9242508276543614b5d19b0
:10295c006b7ebb4325d08c2252006243604b20001f
:10296c009b1840228833196891431960072101f0a4
:10297c00d9fc061ecdd004225521200006f09afd6c
:10298c00a87e06f029fd5748af7607f0c0f9012163
:10299c00200006f0d1f8544807f0b9f9574807f071
:1029ac00b6f91422012662434c4b9b189b7b1e40ac
:1029bc0000d0a7e00421200001f0b4fc070001289e
:1029cc004cd12425654332000a21200007f008fa77
:1029dc00404b8c215d190223ea7f4900614313436c
:1029ec00eb773f4b2a7f5b18db3301321b78d2b27b
:1029fc002a77934232d8200004f074f939482e77a4
:102a0c0007f085f93900200006f096f8364807f0f3
:102a1c007ef9364807f07bf90321eb6807220b405f
:102a2c00012b52d1200007f0dbf92e4807f06ff98b
:102a3c000121200006f080f82b4807f068f9304897
:102a4c0007f065f9242302216343224a2000d3189e
:102a5c00da7f8a43da77063101f064fc04225521cf
:102a6c00200006f011fd07f0c7f824236343194a30
:102a7c00d31800225a7607f0c9f82425042665439a
:102a8c00144b5d19eb7c33420ad007f0b5f8eb7ca4
:102a9c00b343eb7407f0baf80921200001f042fcb3
:102aac002425082665430b4b5d19eb7c334200d182
:102abc0034e707f0a1f8eb7cb343eb7407f0a6f80e
:102acc000a21200001f02efc28e70821aae7c046c5
:102adc0050050020d8040020f00400203c05002004
:102aec00000000203068000036680000f85d00002f
:102afc001c5e0000505e0000655e0000845e0000fd
:102b0c00a25e000024236343114ad3185a7e120795
:102b1c0006d55a7f602101325a77200005f060fdfe
:102b2c002423082163430a4ad3185a7e8a4302d0cd
:102b3c001a7f01321a77200006f0a0fa242363438f
:102b4c00034ad3180122d97f0a43da7786e7c046b5
:042b5c00d804002079
:020000040000fa
:102b6000f7b50c254543c54b06005b199b7a5b07ff
:102b7000db0f1c1e59d024224243c14b9b185a889c
:102b800011b2002900db41e15a791b79120213438b
:102b90001bb200936b461f880f24fb1201937b0529
:102ba00056d506f0a9fe019bb64823401c00b64b43
:102bb000b64f5d196b890835db051b0f9c4236d17a
:102bc000009b002b33da07f0a8f80121300005f054
:102bd000b9ff380007f0a1f8ad4807f09ef81e22b3
:102be000eb7893431a000a231343eb7000240c2361
:102bf0007343a24deb181f7a0093fb23053f1f4040
:102c000008d1300006f078fe06f0fcff009b1f7232
:102c100007f002f806f0f6ff0c2304227343ed18c8
:102c2000ab7a9343ab7206f0f7ff2000febd07f0ce
:102c300074f80121300005f085ff380007f06df8c9
:102c4000944807f06af80321300005f069fdcde7ec
:102c5000fb122340019375d18b4b5d19eb7a08353c
:102c60009b061bd5874807f058f80121300005f076
:102c700069ff864807f051f8874807f04ef8ea7870
:102c8000d3061b0f0f331c40022c04d81e239a437b
:102c9000163b1a43ea70300006f028fd0c237343fc
:102ca000794a7848d3182022d97a24240a43da7240
:102cb00007f033f80121300005f044ff734807f0b6
:102cc0002cf8764807f029f8862374435b00734399
:102cd0006b4a7348121954785288c1181a520c71f1
:102ce0004f80300005f07cfa0c210b007343664cda
:102cf0000198e2185289d205120f904270d1009ac1
:102d0000002a6dda242070435d4a8c4612185788d9
:102d10001c0002227f047f0fbf00ba4215db63460e
:102d20007343594ce418250008356a88ab78d205fe
:102d3000db06120f1b0f9a4229d1300006f0d6fc99
:102d4000082454e706f0d8fdcee74f4b18198368e6
:102d50000500d903c90d4b1cdb05db0d43721b0ab3
:102d600000930123807a9843009b1843a872862021
:102d7000400070434a4b1b18242070435918404ba5
:102d80001b189b181b7901324b71d2b2c5e73d4825
:102d900006f0c3ff0121300005f0d4fe3b4806f0e9
:102da000bcff404806f0b9ff1e22eb781f2093437a
:102db0001a00042313430f22eb706b88db051b0ff3
:102dc00001331340083a1a405101a27a02400a43e3
:102dd0000121a272da08e37a8b431343e37205e719
:102de000284806f09aff0121300005f0abfe274885
:102df00006f093ff2c4806f090ff0c231e2273432d
:102e0000e418e37a93431a000823e6e71e4b0024f4
:102e10005d19eb7a99061dd51f210a40052a19d0a4
:102e20000f22db061b0f0f3313401648174f1f4da1
:102e3000022b12d806f071ff0121300005f082fe4e
:102e4000380006f06aff280006f067ff300006f041
:102e50004dfc103402231c43c9e606f05eff01213d
:102e6000300005f06ffe380006f057ff280006f02e
:102e700054ff300006f03afcece7c0466c05002039
:102e8000fc0400205a9600006005002060960000b7
:102e90001c5d00003a5d00005f5d0000d77400001b
:102ea0003c010020805d00009b5d0000c15d0000d2
:020000040000fa
:102eb000f0b58bb001930c2343439f4c1700e318ec
:102ec000da7a06009206d20f0d009446002a4ad103
:102ed0003a0448d5862252007243984881180d71f1
:102ee0001f251752997aff0129409972d97a1e3d00
:102ef000a943d9728021ff0d090283180f435f8017
:102f0000019b002b07d063460532ff051018ff0d0b
:102f10009ab2974222d20c257543119a63195a60ce
:102f2000109b3000635105f05bf93e2208356419af
:102f3000e378834893431a002a231343e37006f08f
:102f4000ecfe0121300005f0fdfd7e4806f0e5feb7
:102f50007d4806f0e2fe03200bb0f0bd019ad25c82
:102f6000c2540133d4e70c237343784a1199d21821
:102f70005160764a1099995024227243744b9b18e1
:102f8000dc68012d2fd10e222402a40f71493000dc
:102f900006f0d5fe7049300006f0e3fe013c6342c6
:102fa0005c410200702302349a4324012243d2b2ce
:102fb0006949300006f0c3fe0c23012d61d0002dbd
:102fc0001bd0022d65d000255d4806f0a6fe01212c
:102fd000300005f0b7fd5b4806f09ffe5f4806f045
:102fe0009cfe2c000fe0022d03d12402a40f162218
:102ff000cce7a406a40f0622c8e77343534ad318ac
:103000005c7a6407640f6102394302ab019a3000b5
:1030100002f060ff072207005149300006f08ffee2
:10302000c0213b0002aa4901300006f0c3fb3a0070
:103030004c49300006f083fe88222c4322430c24a6
:1030400074434949300006f07afe404b1c192300b6
:10305000227a0833092a24d106f0d4fd05232372ed
:1030600006f0dafd364806f058fe0121300005f082
:1030700069fd344806f051fe3c4806f04efe022041
:103080006ae77343314a1025d3185c7aa406640fab
:10309000b9e773432d4a2025d3189c68e403640fd5
:1030a000b1e79b785b0706d524227243304b9b180f
:1030b0005b78002b06d024227243254b9b18db68db
:1030c0001b0314d5300004f0aff8300006f052fbbb
:1030d0001b4806f022fe0121300005f033fd19489f
:1030e00006f01bfe234806f018fe002034e72249b4
:1030f000300006f036fec306f9d5114806f00dfe85
:103100000121300005f01efd0e4806f006fe1b48aa
:1031100006f003fe30000122174906f010fe06f00b
:1031200071fd0c237343094ad6180623337206f047
:1031300073fd012010e7c046600500203c0100201f
:103140005a96000060960000d77400006c050020bd
:10315000d8040020411a0000021a0000ef74000099
:10316000861a0000031a0000041a00000a75000005
:10317000fc0400202b750000051a000043750000b8
:020000040000fa
:103180009a4a0301d318f0b51d7a0b0085b00400ec
:1031900001911b0505d502aa01230532944905f0ca
:1031a00091fd0127019b3b4239d002ab5e1d3200ed
:1031b0003b009049200005f085fd33787f2b05d931
:1031c0003b0032008b49200005f0d0fa33789b0792
:1031d0000dd002aa022306328749200005f072fdb5
:1031e00002aa022306328449200005f0bffa022316
:1031f00002aa961d3200814920001d4305f062fda0
:10320000242262437e4b9b18d968032332881940dd
:10321000230101294bd1d2437449cb185a80019b19
:103220005b051dd502ab5e1d3200012375492000f0
:1032300005f048fd33785fb2db0709d524220c2363
:1032400062439d436e4b9b180822597e0a435a766f
:10325000012332006b49200005f088fa002f03dbc0
:10326000019b9b0500d4bbe002ab5f1d3a0001232c
:103270006549200005f026fd24236343604e2101ab
:10328000f318da6803231a403b78002b21d1702011
:103290008543002a0ed0019a92057bd41022134256
:1032a00029d024236343f618727e012388e04f4916
:1032b000cb18b3e74d4a525c082aefd11421614381
:1032c000524a5218917b30221142e7d12f3a1543ce
:1032d000e4e7012b4cd1002a5cd1444a525c082a15
:1032e000dcd114216143494a5218917b30221142aa
:1032f000d4d11d43d2e7202293430d2b62d16333f7
:1033000002aa0632424920009d436e3b05f0dafcda
:1033100002abd88806f00cfb3e4a3f4b01f0baf9ed
:10332000324a2301d3189a680600187b120a000655
:1033300010430f0005f0a0fb02000b003000390025
:1033400003f036f805f0f3ff2422624302ab80b2ab
:10335000d8802b4b9b185a89904233d82f498a42e8
:1033600003d110231d43edb22ce05b7d1b01f9e777
:10337000052b93d1002a0dd170271c4a5018027ad0
:103380003a40102a8ad0194a525c082a02d142785f
:10339000042a83d102ab9f1d00233a003b802049c1
:1033a0000133200005f08efc3b889b060ad52423c0
:1033b0006343f6180523f27f1a4203d1727e033b62
:1033c0001343737602aa012305321649200005f043
:1033d00079fc02aa012305321249200005f0c6f942
:1033e000024b24011c19257205b0f0bd50050020c8
:1033f0000b08000003080000040800000608000095
:10340000d80400200a080000080800003c0500203d
:10341000b2080000ae47e17a14ce4c408813000099
:083420001f080000090800006c
:020000040000fa
:10342800f7b5794d2b78002b02d0012b07d0f7bdcb
:1034380006f0befa05f048ff01232b70f7e7734e3c
:1034480073487388734a58430023904204d97249d9
:1034580003f02cff0a3883b2704a714c1380277826
:1034680005f032ff33886f486b49584303f01eff5d
:10347800002101901c226c4806f01afc6b4e317832
:10348800012901d00023d8e7694b00201a00d53262
:103498001070019a2c220198ff32904225d81a0008
:1034a8006448fc3250601a00ff329177082222707b
:1034b8002278ba42e6d08022596ad2000a435a6278
:1034c80040228c3319685c480a431a6006f021fcd4
:1034d8000121002005f032fb584806f01afc584834
:1034e80006f017fc00233370cce7cc210198ff319c
:1034f80090420ed9019a8a420bd81a004d49fc32e3
:103508005160504991601a000221ff3291770722d9
:10351800cde701984c4a88420bd90199914208d8c5
:103528001a004449fc32516019000122ff318a77a0
:10353800bde70198454990420cd9019a8a4209d8b9
:103548001a003c49fc32516041499160190002223d
:10355800ff31ece701983f4a88420ed90199914220
:103568000bd81a003349fc3251603b4991601a006c
:103578000221ff329177032299e701983749904257
:103588000ed9019a8a420bd81a002a49fc32516096
:10359800334991601a000221ff329177042286e7ad
:1035a8000198304a884212d9019991420fd81a00dd
:1035b8002049fc325160264991602749d160284949
:1035c80011611a000421ff32917705226fe70199f2
:1035d800914200d86ce70199234a914200d967e7e4
:1035e8001a001449fc325160194991601a49d16096
:1035f8001b4911611a000421ff3291771a0003391f
:10360800d5321170062252e7a0050020800500205f
:10361800c8190000f59f0000ff0f00009605002064
:103628009f050020e40c00000001002099050020ff
:10363800000000202c9101184e98000054980000ba
:10364800579800002cc1030057020000ed0200004b
:103658002cd10200830300002cb104007705000080
:0c366800f4410600a30600001b0c00004b
:020000040000fa
:1036740050455f56444d5f4944454e544954595f43
:10368400524551554553545f454e5452595f535317
:103694000d0a0050455f56444d5f4944454e544918
:1036a40054595f524551554553545f4d53475f44f8
:1036b4004f4e455f53530d0a0050455f56444d5fce
:1036c4004944454e544954595f5245515545535404
:1036d4005f474f4f444352435f4e4f545f524356ec
:1036e400445f53530d0a0050455f56444d5f4944af
:1036f400454e544954595f524551554553545f4eb4
:103704004f5f524553504f4e53455f53530d0a007c
:1037140050455f56444d5f4944454e544954595fa2
:1037240041434b45440d0a0050455f56444d5f49a3
:1037340044454e544954595f4e414b45440d0a008b
:1037440050455f534f46545f52455345545f454e71
:103754005452595f53530d0a0050455f53454e442c
:103764005f534f46545f52455345545f534f505f28
:1037740053530d0a0050455f53454e445f534f4623
:10378400545f52455345545f4d53475f444f4e4534
:103794005f53530d0a0050455f53454e445f4e4fef
:1037a400545f535550504f525445445f454e545204
:1037b400595f53530d0a0050455f53454e445f52c1
:1037c400454a4543545f454e5452595f53530d0a7d
:1037d4000050455f474956455f4341505f454e544d
:1037e40052595f53533a4745545f53494e4b5f43d5
:1037f400415020524356440d0a0050455f474956f4
:10380400455f4341505f454e5452595f53533a47c5
:1038140045545f53494e4b5f4341505f45585444b0
:1038240020524356440d0a0050455f4745545f53a8
:10383400494e4b5f4341505f454e5452595f535379
:103844000d0a0050455f4745545f53494e4b5f4353
:1038540041505f4d53475f444f4e455f53530d0aec
:103864000050455f4745545f53494e4b5f434150b9
:103874005f4e4f5f524553504f4e53455f53530d68
:103884000a0050455f4745545f53494e4b5f4341df
:10389400505f524553504f4e53455f524356445f19
:0538a40053530d0a0062
:020000040000fa
:1038a900506f72743a002c200050455f5643535fa5
:1038b90053454e445f535741505f454e5452595feb
:1038c90053530d0a0050455f5643535f53454e44c9
:1038d9005f535741505f4d53475f444f4e455f53c8
:1038e900530d0a0050455f5643535f53454e445f9d
:1038f900535741505f4e4f5f524553504f4e5345ba
:103909005f53530d0a0050455f5643535f53454e6d
:10391900445f535741505f52454a4543545f5243b0
:1039290056445f53530d0a0050455f5643535f5346
:10393900454e445f535741505f574149545f524385
:1039490056445f53530d0a0050455f5643535f4534
:1039590056414c554154455f535741500d0a00504b
:10396900455f5643535f4143434550545f53574165
:10397900502d53454e445f4143434550545f535383
:103989000d0a0050455f5643535f574149545f46fe
:103999004f525f56434f4e4e5f53544152545f54fa
:1039a900494d45525f53530d0a0050455f564353e5
:1039b9005f5455524e5f4f46465f56434f4e4e0d2c
:1039c9000a0050455f5643535f5455524e5f4f4e60
:1039d9005f56434f4e4e0d0a0050455f5643535fa5
:1039e90053454e445f50535f5244592d454e5452ee
:1039f900595f53530d0a0050455f5643535f534572
:103a09004e445f50535f5244595f4d53475f444f93
:103a19004e455f53530d0a0050455f5643535f436c
:103a2900424c5f53454e445f534f46545f52455392
:103a390045545f454e5452595f53530d0a00504542
:103a49005f5643535f43424c5f53454e445f534f68
:103a590046545f52455345545f4d53475f444f4e5b
:103a6900455f53530d0a0050455f5643535f434228
:103a79004c5f53454e445f534f46545f524553453f
:103a8900545f4552524f525f53530d0a0050455fe0
:103a99004446505f5643535f43424c5f53454e443f
:0f3aa9005f4341424c455f52455345540d0a005f
:020000040000fa
:103ab8000c23f0b54343624d0400eb18d87a87b065
:103ac80083063ed5c006000f0238082839d806f00c
:103ad800f9f805383c4838389988ab000c26664315
:103ae800584806f016f90121200005f027f8ae190c
:103af800554806f00ef90836544806f00af9f378e6
:103b08005d06ed0f03d01e2293430a3a17e020000a
:103b180004f04afc8621490061434d4b02005b18c2
:103b280019794c4b200001934b4b00932b00fff766
:103b3800bbf91e22f3789343012804d1183a1343a2
:103b4800f37007b0f0bd0822f9e70c226243434b3b
:103b580020009b180222997a0a439a7205f0c2fd46
:103b6800efe70c266643ae190836f3785a06cad42e
:103b7800862577886d006543ff053b0f344f039317
:103b88007b190593364a5b882e481340039ad20264
:103b98001343ea5b1b041a43049206f0baf80121a6
:103ba800200004f0cbff284806f0b3f82d4806f0b3
:103bb800b0f86b1d1a25039a20005543059a5b1926
:103bc8001179294adb190192284a0092049afff7d1
:103bd8006bf91e22f3789343123a0128afd01022d2
:103be800ade70c266643ad1908356b880121db0566
:103bf8001b0f15d01e22eb7893431a001023134392
:103c0800eb709ee70f4806f084f80121200004f0cd
:103c180095ff0d4806f07df8154806f07af803215f
:103c2800200004f079fd8ce70c26200005f05afdf1
:103c3800402274432d19eb7a9343eb7281e7c04617
:103c4800600500205a96000060960000507400003d
:103c58003c010020010004009d8200006c0500204a
:103c6800ff87ffff7e74000008070808c97300007b
:043c7800ad74000027
:020000040000fa
:103c7c00f8b524264643614b05009e19338a002b68
:103c8c0067d0f76804f022fe002862d0280004f008
:103c9c0057fc00285dd003210824338a0f402342af
:103cac0017d014226a43a3433382554b4131d1546c
:103cbc009b189a2253489a7006f029f80121280083
:103ccc0004f03aff504806f022f8504806f01ff86e
:103cdc0028e01022134242d093433382484c012fe8
:103cec0038d1f3685b015b0f032b07d111336b43a6
:103cfc00e35c052b02d1280005f0c0fd1423022241
:103d0c006b43e254e418a2703e4806f000f801211f
:103d1c00280004f011ff3c4805f0f9ff3c4805f081
:103d2c00f6ff102424236b43344ad318dc82012f72
:103d3c0003d13900280002f031f905f05dff0c23a6
:103d4c006b43344ded181023aa7a1343ab7205f074
:103d5c005dfff8bd14231a226b43e254d4e72024f0
:103d6c00234219d0a3433382280003f0b5fc022868
:103d7c00efd114226a43224b2248d4549b18492277
:103d8c009a7005f0c4ff0121280004f0d5fe1e48ee
:103d9c0005f0bdff204899e74024234215d014229a
:103dac0027216a43a3433382154b1648d1549b18e1
:103dbc0056229a7005f0abff0121280004f0bcfede
:103dcc00114805f0a4ff154880e7802464012342c4
:103ddc00bfd014220c216a43094b0a48d1549b18ba
:103dec0023229a7005f093ff0121280004f0a4fe11
:103dfc00054805f08cff0a4868e7c046d804002047
:103e0c003c0500203068000036680000286e000079
:103e1c00466e00006c050020656e0000816e00008f
:043e2c00a16e000083
:020000040000fa
:103e3000f7b504000f00614e0501002963d1082386
:103e400084217519ea7909011343eb710c2205f0fd
:103e500037fb842140220901200005f031fb3900a5
:103e6000200004f0c3fb29225549200005f070ff13
:103e70006b4682210126df1d3a0001230901200043
:103e800005f0a8fc2a7a2e710c253b782a40042ada
:103e900026d1822103329343053a13433b703a0003
:103ea00033000901200005f085fc4649032220006b
:103eb00005f006fb3100200003f052fb60212000da
:103ec00004f094fb404805f028ff0121200004f095
:103ed00039fe3e4805f021ff3d4805f01efff7bdc5
:103ee000382282219343283a13433b703a0033002f
:103ef0000901200005f05efc32492a00200005f08f
:103f0000dffa0221d7e724274743324bdf197b7fb3
:103f1000002b0fd0f87e05f065fa8c225200624328
:103f20002d4b2e499b18b23318882200002304f031
:103f3000c7f8f8762349200005f013ff24236343d4
:103f4000244ad3180322db681340012b13d17219c2
:103f50009778d1788f4202d9d2791a4210d1c3060c
:103f60000ed430227519eb7993431a0020231343a2
:103f7000eb7108220de073199a78db789a42f0d23f
:103f800030227519eb7993431a001023134304224e
:103f9000eb7184212000090105f07cfa8c2252008b
:103fa00062430d4b9b185b6a9b0598d58421402288
:103fb0000901200005f06efa91e7c0465005002087
:103fc00022080000210800000c9600001296000054
:103fd00015960000d804002000000020559700002e
:020000040000fa
:103fe000564b70b5142203620023040043804276ce
:103ff0005349221dc95cd1540133142bf8d18e23af
:104000009b00636223004f4afe331a844e4a4c3ba6
:104010001a80962200265200043b1a802733283a41
:104020001e70ff3a01331a80484a02331a60484a28
:104030009a8020229a711c3a27335a7702f054f959
:1040400005001c223100434805f036fe681e072893
:104050000dd8414b414a1900e4310a6005f036fea3
:10406000042b32363a4d61690122ff335a7723001f
:104070003b4ac6333b491a80023399650321d9650f
:104080008021394a49041a60384a19665a60002268
:1040900037491a72996637495a66d9669c235b007c
:1040a000e2542300b4331a602200334bb832bc34dc
:1040b0001360236070bd1a003049e8321160ff338d
:1040c0000222d3e71a002e49e832f7e71a002d49f9
:1040d000e832f3e71a002949e83211601a0028494a
:1040e000ec3211601a002749f03211601a000421e5
:1040f000ff325177d533002211e01a001f49e83210
:1041000011601a001e49ec3211601a001d49f0328c
:1041100011601a000421ff3251770122d5331a7041
:10412000a5e71a001849e83211601a000221ff328f
:10413000dfe71a000121ff32dbe7c0465003240409
:10414000c49b0000060c00001027000073550203fa
:1041500003090000e4000020000000202c91011859
:10416000b80b000000240450e803c40900008813c1
:104170000000040564640000d007d0072cd10200c1
:0c4180002cb10400f44106002cc1030027
:020000040000fa
:10418c008222f0b5c7b05200002104000f2705a809
:10419c0005f08cfd002320006f443b70fff786fc7c
:1041ac0005f02afd14236343584dea18917c00292d
:1041bc0012d024206043564909180320c9680140d5
:1041cc00012900d097e00831595517239370142317
:1041dc0000226343eb189a7405f018fd002304aa1f
:1041ec000093390005ab200001f0b0f80a23184207
:1041fc0064d003211a336343454ef3189a7c049b15
:10420c0012099b090a400b40d1b29a4200d9d9b28b
:10421c003a78200003f08ef8200004f00dfd0c23fa
:10422c0063433c4ad3189b7adb0637d52427674374
:10423c00f719fb8a002b31d0374805f068fd0121b6
:10424c00200004f079fc354805f061fd344805f098
:10425c005efd0323fa681a4011336343012a4ed1e1
:10426c000432ea54eb180c329a700021200001f051
:10427c0095fe05f0c1fc0c2310216343254ad3188d
:10428c009a7a8a439a7205f0c1fc24236343f61888
:10429c00338af28a134333820023f3821423634359
:1042ac000499eb18da1dd9710b0a53700b0c93702f
:1042bc000b0ed370200005aafcf7b4fa1423634349
:1042cc00ed18b42320006b70fdf7aef82422624386
:1042dc000f4b9b180322db681340012b04d0049a6c
:1042ec0005a92000fdf746fb049a05a92000fbf761
:1042fc00e3fe47b0f0bd1f215955452366e71d224b
:10430c00ea54eb1826329a70b3e7c0463c050020fd
:10431c00d80400206c050020448d00004a8d00005c
:04432c005c9300009e
:020000040000fa
:1043300070b504000d00102900d17de015d80329c7
:1043400062d00ad8012932d002293fd029002000aa
:1043500004f0d4f80123184070bd0d2900d191e07c
:104360000e29f3d102f0e6f8f0e720291ad81f2928
:1043700000d37fe011296fd01529e7d1032103f085
:10438000b1f9474b032805d0242262439a18d2681a
:104390009205dbd52422202162439b181a8a8a4386
:1043a0001a82d3e72b29d1d101f03affcee73d485d
:1043b00005f0b3fc2900200004f0c4fb3a4805f0e6
:1043c000acfc3a4805f0a9fc2000ede7354805f0c3
:1043d000a4fc0121200004f0b5fb334805f09dfc4e
:1043e000334805f09afc8c2252006243314b9b18f3
:1043f00001220433d96fa9430a43da670022062158
:10440000200000f075fba1e7264805f086fc01219d
:10441000200004f097fb244805f07ffc264805f0b7
:104420007cfc8c2252006243224b9b180433da6fcf
:104430002a43da670122e2e70122072100f058fb54
:104440008c22520062431b4b9b18802288331968d0
:1044500092000a431a6079e70022072100f048fb26
:104460008c2252006243134b9b188833134a1968fd
:104470000a40efe724224243094b11499b181a8a4c
:104480000a408de7074805f048fc0121200004f0b0
:1044900059fb054805f041fc0a4805f03efc55e78c
:1044a000d804002030680000366800003968000039
:1044b00062680000000000208f680000fffdffff21
:0844c000ffefffffbc680000e4
:020000040000fa
:1044c800f7b50400002104f08df80021200004f065
:1044d80054fc83225049200004f0d8ff4f4d23019b
:1044e800ed18ab68287b1b0a000618434c4902f0fc
:1044f80055fa05f009f98b2182b20901200005f06f
:1045080023fc01224749200004f0c0ff242303278d
:104518006343454ad318de683e401cd16b460c22e3
:104528001a711422310020005a7105f0e9fa31009d
:10453800200005f02bf98c22520062433b4b9b185c
:1045480001228c3319683b00114054d1200003f03c
:10455800f5fa06232b80012301aa3549200005f02e
:1045680025f96a46012305323249200005f01ef973
:104578000321200002f0f0ff8c22520062432b4bf3
:104588002d499b18da331a78200005f0d4fb6b46c6
:104598009d1d7d232a002b8028497c3b200005f0a7
:1045a80005f901232a002649200005f0fff801211a
:1045b800200004f0e2fb6021200004f013f824231b
:1045c8006343194ad3180322d9680a40012a04d040
:1045d800da880021200001f09bf81a4805f099fbc1
:1045e8000121200004f0aafa174805f092fb1748a9
:1045f80005f08ffbf7bd3a003100200003f09efa6a
:104608000c232b8014234c216343114a9954d3184b
:10461800b4229a709fe7c046110800005005002098
:1046280000007c423f080000d80400200000002061
:10463800170800004a0800001908000014080000c4
:104648001c0800000c96000012960000389b000021
:044658003c050020fd
:020000040000fa
:10465c0008d1002806d1f54204d801d3002a01d193
:10466c006d0d09d10020c143090dc904f0bdf9d16c
:10467c001242f7d1640df5d00020c1434905490819
:10468c00a6e000206146f0bdf0b50127ff070e0043
:10469c005e403e40b446be0a4c18dd18f442d7d2f8
:1046ac00f542e4d2640decd06d0dead06419c90268
:1046bc003943460dc0023143db023b43db0a10b4e5
:1046cc008e4685b297b26f43140c6c433e0ca41902
:1046dc00260c2404bfb227439cb26c43a419190cba
:1046ec006943250ca4b249190d04090c6419000c7a
:1046fc0095b245433e0c76193743bfb2360c150cb8
:10470c004543ad19a6b2240cad192e0437432e0c1b
:10471c0036199db24543ad19acb22e0c89191d0c3e
:10472c0045436d182e04290c3443704680b295b263
:10473c0045433e0c76193743bfb2360c150c454336
:10474c00ad19a6b2ad19240c2e0437432e0c361914
:10475c009db24543ad19acb22e0c89191d0c4543c5
:10476c006d182e043443290c75462d0c90b26843f9
:10477c003e0c80190604bfb23e43070ca0b23f1892
:10478c00120c6a43d019020c80b2240ca4189ab2f1
:10479c006a43121914042043120c89181b0c6b4326
:1047ac00c91810bc01273d05294203d1b619404157
:1047bc004941013cff077d0d013d641b0bdb6d0086
:1047cc00ac4209da240500254208be41684161412a
:0a47dc0066463143f0bd54e74ee796
:020000040000fa
:0247e600fee7ec
:020000040000fa
:1047e80010b5040004f0c2ff2000434a434905f015
:1047f800abfa2000424a434905f0a6fad02120002e
:104808005422490105f097fa20003f4a3f4905f034
:104818009bfa200064223e4905f08dfa20005e22b2
:104828003c4905f088fad5210a2320003a4a490173
:1048380004f0bcff2000394a394905f085fa200008
:104848001823384a384904f0b1ff18232000374aa2
:10485800374904f0abff20000122364905f06bfa16
:1048680020001022344905f066fa2000102233494e
:1048780004f00cfe20008822314905f05cfa200083
:104888008022304905f057fa200007222e4905f00a
:1048980052fa200007222d4905f04dfa2000042283
:1048a8002b4905f048fa20001022142104f0eefdef
:1048b8000c23002163432748c21851601a000832ac
:1048c800195012181f201180917881439170224a43
:1048d8002000d31808221a7204f004ff1f4805f0bc
:1048e80018fa0121200004f029f91d4805f011faf1
:1048f8001c4805f00efa10bd3c1e00000b1a000003
:104908009f320000071a000080c40000421a00000d
:10491800461a0000491a0000a29e00009fc8000025
:10492800b01a0000d89a000010280000c09a0000b1
:1049380030280000022800000428000001080000b8
:10494800821a0000871a0000811a0000861a0000e7
:10495800891a00006c050020600500205a960000a6
:0849680060960000fc9d0000b8
:020000040000fa
:10497000f0b55b4c85b0637b002b20d00122a37b7c
:10498000617bdbb2114201d013424ed10423a27be2
:10499000617bd2b2194212d01a4210d00720228a6b
:1049a000024000d18be04f49ca872082a27b1a4285
:1049b0004ad10b6a002b02d0496a0220984705b001
:1049c000f0bd072266684849164002aa0632012e49
:1049d0001fd0c95c1170019901338b4289410b4092
:1049e0000721eb6063680b40012b19d013782383f8
:1049f000002f1ed005f0fcf82b68002b15d02a7f65
:104a0000002a0fd0aa6990420fd369680320984703
:104a10000be05e00885d8919497810705170dae703
:104a20001388e4e7aa699042efd02e4d2b690193d9
:104a30002f7d0122a37b1342a8d0aa68eb689a427b
:104a4000bfd101232373a1e7228bafe7254d268b2e
:104a5000ab6a2a6b0133934292411340ea6ab6b2c1
:104a60009a420bd12a6a002a08d0696a012090472d
:104a7000ab6a2a6b0133934292411340ea6a9a422d
:104a80001dd0072261681140184a01291bd0a96a6c
:104a90005654ab622b0034331b78002b0fd004f03c
:104aa000afff2b6a002b0ad02a003c321278002a72
:104ab00010d0aa6b904202d30020696a9847a37b6a
:104ac0005b07c3d47be7a96a490056545218360adb
:104ad0005670dee7a96b8842f1d1696a1000ede7f4
:104ae000000c004258040020080300209405002018
:020000040000fa
:104af00010b50400881e13000e2817d805f0e6f83c
:104b0000081d25168aa4acaf16162f45576a7900e2
:104b1000012a0cd119000022534805f08df9534b9e
:104b2000c046c046013b9bb2002bf9d110bd01220b
:104b30004d48110005f080f9f8e780214a4ac90084
:104b4000012b00d086e05161f0e708212000012a06
:104b500002d105f095f9e9e705f098f9e6e7012ab1
:104b6000e4d100220321200004f00bff03212000e8
:104b700005f08cf90321200005f076f902223a4b6a
:104b80005a60d2069a609a61d0e7012aced10321f9
:104b9000200004f0f6fe0321200004f0e5fe0222ce
:104ba000314b9a609a61d2069a605a61bee7012a37
:104bb000bcd100220321200004f0e3fe03212000e9
:104bc00005f05ef90321200005f04ef90222264b84
:104bd0005a60e8e7012aa9d10321200004f0d1fea0
:104be0000321200004f0c0fe02221f4b9a605a618c
:104bf000c7e7012a9ad10321200004f0c2fe032155
:104c0000200004f0b1fe0222174b5a60d2065a600f
:104c10005209cae7012a0dd102212000002204f026
:104c2000b0fe0221200005f02bf90221200005f042
:104c30001bf97be720000022022104f0a2fe0221e2
:104c4000200005f023f9f0e78021074a0904012b31
:104c500000d078e7916169e7034a0221f7e78021f4
:104c6000014a0902f3e7c046004400417017000002
:020000040000fa
:104c7000f0b50e2785b000236a46d4216f44137324
:104c800053733b7003aa01334901040004f01af87e
:104c90006b4601251b7b2b425ed00d222b006a4404
:104ca0004b49200004f00ef82b003a00494920003f
:104cb00004f008f86b460f265a7b3b786e4413408d
:104cc000337032002b004249200003f04ffd327850
:104cd000414e2a4208d00c2363431020f3181900d8
:104ce0001d729b7a83438b72930709d50c23634310
:104cf0000320f318190018729b7a0d3083438b72ce
:104d0000530704d50c2302216343f31819721307c8
:104d100004d50c2304226343f3181a720c252b00cc
:104d20006343f3181b7a042b02d0200002f07cfab4
:104d300065437759002f0ad075196968080c0a0a6b
:104d4000c3b2000a0090d2b2c9b22000b8470c2307
:104d50006343f618002333726b461b7b9b0735d5e4
:104d60000d220e2601236a441c4920006e4403f0e4
:104d7000a9ff012332001a49200003f0a3ff6b466c
:104d80000f255a7b33786d4413402b702a00012382
:104d90001249200003f0eafc2b787f2b02d9200077
:104da00003f070ff08222b7813420fd00c23282029
:104db000634309499b185b18997881430a439a70a9
:104dc00014236343074ce4180123a37405b0f0bd1a
:104dd000811a0000861a00006c050020821a00006b
:084de000871a00003c050020c9
:020000040000fa
:104de800536f7572636520436170206d65737361dd
:104df80067652072656365697665640d0a005265aa
:104e08007175657374206d6573736167652072656c
:104e18006365697665640d0a0050455f534e4b5fc4
:104e280053454c4543545f4341504142494c4954d2
:104e3800593a20476f746f6d696e204d7367205221
:104e4800656365697665640d0a00526571756573f9
:104e58007420616363657074656420627920536fa0
:104e6800757263650d0a004163636570742072652d
:104e780063656976656420666f7220536f66742077
:104e880052657365740d0a0041636365707420721e
:104e98006563656976656420666f7220534f502795
:104ea80020536f66742052657365740d0a0056436b
:104eb8004f4e4e5f53574150204163636570746590
:104ec8006420627920706172746e65720d0a0052f6
:104ed8006571756573742072656a656374656420ad
:104ee800627920536f757263650d0a0056434f4e01
:104ef8004e5f535741502072656a6563746564203c
:104f0800627920706172746e65720d0a0056434fa3
:104f18004e4e5f535741503a2050535f52445920e8
:104f280072656365697665640d0a0056434f4e4e97
:104f38005f537761702052656365697665640d0a11
:014f48000068
:020000040000fa
:034f49006e6d6c1e
:020000040000fa
:104f4c004e49f0b50b0085b0d3331b7802aa05325d
:104f5c00137001921622ff2002ab06331a7002aabc
:104f6c00d071474a1278002a50d0464c2278672ad2
:104f7c004cd1454a1288100a22720a00e071aa32fa
:104f8c001288081d160ad2b2a27122740a00c06fd0
:104f9c00667160733d48e673c068ac32000ea07356
:104fac001288100a60740020a274019a127882424e
:104fbc0031d8019b364d1a78230045331a702300e3
:104fcc000a7f44331a7022002b684932190e117073
:104fdc002200190c483211702200190a4732117044
:104fec002200463213702300a0224a33052129489f
:104ffc001a7003f01dfb4b21200003f019fb062156
:10500c00254803f015fb2b6801332b6000221c4b49
:10501c001a7005b0f0bd0200103292008a18526866
:10502c0002ae970f073637703778032f18d11e78da
:10503c00144f150ebe19033e35701e78550cbe1953
:10504c00023e35701e78150abe19013e35701e7869
:10505c00ba551a7801300432d2b2c0b21a70a4e731
:10506c003678002ef5d11e78064f150ebe19033e6c
:10507c0035701e78150cbe19023ee2e700000020c8
:10508c009b0500208803002096050020d8040020f2
:0c509c00840500201c9e0000229e0000e5
:020000040000fa
:1050a80054595045435f554e415454414348454433
:1050b8005f534e4b5f454e5452595f53530d0a0090
:1050c80054595045435f554e415454414348454413
:1050d8005f534e4b5f574149545f464f525f56539b
:1050e80041464530565f5353202d20564255535f55
:1050f80030562050726573656e740d0a005459500d
:1051080045435f415454414348574149545f534ec6
:105118004b5f454e5452595f53530d0a0054595032
:1051280045435f415454414348574149545f534ea6
:105138004b5f43435f4445425f54494d454f555487
:105148005f5353202d20564255535f35565f5052ba
:105158004553454e540d0a0054595045435f415438
:105168005441434845445f534e4b5f454e54525952
:105178005f53530d0a0054595045435f41545441fd
:10518800434845445f534e4b5f53544152545f501c
:10519800445f4445425f53530d0a005459504543f8
:1051a8005f41545441434845445f534e4b5f50441c
:1051b8005f4445425f54494d454f55545f53530d25
:1051c8000a0054595045435f4552524f525f524569
:1051d800434f564552595f454e5452595f53530dec
:1051e8000a0054595045435f44495341424c454491
:0c51f8005f454e5452595f53530d0a009e
:020000040000fa
:10520400506f72743a002c200050455f534e4b5f30
:10521400535441525455500d0a0050455f534e4b60
:105224005f444953434f564552590d0a0065504552
:105234005f534e4b5f474956455f52455649534964
:105244004f4e5f454e5452595f53530d0a0050451b
:105254005f534e4b5f574149545f464f525f434142
:10526400504142494c49544945535f454e54525963
:105274005f53530d0a0050455f534e4b5f455641f3
:105284004c554154455f4341504142494c4954595e
:105294000d0a0050455f534e4b5f53454c454354f4
:1052a4005f4341504142494c4954595f53454e4430
:1052b4005f5245515f53530d0a0050455f534e4ba7
:1052c4005f5452414e534954494f4e5f53494e4bdc
:1052d4005f454e5452595f53530d0a0050455f5376
:1052e4004e4b5f52454144595f454e5452595f53aa
:1052f400530d0a0050455f534e4b5f52454144598c
:105304005f454e445f414d535f53530d0a00504572
:105314005f534e4b5f484152445f52455345545f7f
:1053240053454e445f53530d0a0050455f534e4b53
:105334005f5452414e534954494f4e5f544f5f445a
:10534400454641554c545f454e5452595f53530d95
:025354000a004d
:020000040000fa
:02535600fee770
:020000040000fa
:10535800f7b50400009116001d00fdf7fdfb87b2ac
:10536800002f0ad10c226243414b9b18987a83077d
:1053780062d40007c00f5fd1febd02230340019332
:1053880030d0242161433b4b00989c465b185a78e7
:10539800027000225b88336095421ad1364804f0c7
:1053a800b8fc0121200003f0c9fb344804f0b1fc2b
:1053b800334804f0aefc089bfdb2002b02d0290054
:1053c800200098472800d7e780180379ab540132aa
:1053d80092b26346581843885b045b0f9b009a425d
:1053e800f2dbdbe7030727d5264a009b9446862293
:1053f8006146520062438918087918700b68336057
:10540800002d09d0019b4e1d61468918498898b224
:10541800c905c90d88420bd3174804f07afc01214d
:10542800200003f08bfb154804f073fc1648c0e716
:10543800f15ce9540133e7e70c2262430c4b042783
:105448009b189a7a08339107b5d502218a439a7036
:10545800094804f05efc0121200003f06ffb0748b7
:1054680004f057fc094804f054fc0c37a3e7c04685
:105478006c050020fc0400205a960000609600008d
:10548800048400003c0100201f84000041840000c7
:020000040000fa
:10549800f7b5484f03010193dc5dfb189a785e78f5
:1054a800db78050000925340152b06d013d8012b4a
:1054b80003d0002b50d0052b12d1280002f0c8ffd2
:1054c8002800072c00d16ee0082c1bd1042e17d120
:1054d8000426082404e0902befd006d8802becd0cb
:1054e800019bfc54ff187e70f7bd942be5d0952bdb
:1054f800f6d1082c54d1042ef2d11423434348e0aa
:1055080004f00afb2c4c200004f003fc01212800c5
:1055180003f014fb294e300004f0fbfb284804f08c
:10552800f8fb200004f0f5fb00202b01fb189a780b
:10553800db78012193424041013003f0fffa30004b
:1055480004f0e7fb1f4804f0e4fb0021280002f008
:10555800c3f900260724c3e7009b002bc0d11648d7
:1055680004f0d7fb0121280003f0e8fa134804f0ff
:10557800d0fb154804f0cdfb072c04d1280004f01b
:10558800cbfa0226ace7082caad1042e0ed114239c
:105598006b430e4ded18ab7b9b0699d4052698e717
:1055a800a31f012b9cd804f0b7facee7009e06246f
:1055b80096e7c046500500200c96000012960000a1
:1055c800ff8a00001e8b0000218b00003c05002094
:020000040000fa
:1055d800200500201c0000000000000080050020bd
:1055e800040000000000000048020020c000000085
:1055f80000000000940500200200000000000000e8
:10560800080300208000000000000000580400206b
:10561800400000000000000078050020080000009d
:1056280000000000980500200300000000000000b2
:105638008803002080000000000000009b05002077
:1056480001000000000000008405002008000000a0
:1056580000000000000000203c01000000000000e5
:10566800600500200c00000000000000d8040020a5
:1056780024000000000000003c0100200c01000094
:105688000000000098040020400000000000000016
:105698006c0500200c00000000000000fc04002045
:1056a80024000000000000003c0500202400000049
:1056b800000000009c05002003000000000000001e
:1056c8009f05002001000000000000009605002052
:1056d8000200000000000000a005002001000000fa
:1056e800000000008c0500200400000000000000fd
:1056f8000804002050000000000000009005002071
:10570800040000000000000000000000000000008d
:020000040000fa
:10571800f8b58c235b0043430d0044490400cb18c3
:10572800c6331b881e1c934200d9161cb6b2002d26
:1057380003d12900200002f023fb002208212000c9
:10574800fff7d2f9002209212000fff7cdf98c23b9
:105758005b006343354ad3181f0088373968344ad9
:105768000a403a60334a96421bd901220921200097
:10577800fff7baf980235b003a6813433b608c2338
:1057880000265b005c43294b1c192b4bd034267038
:105798009d423ad020d8294b9d422bd0012210217e
:1057a8002fe0274a964206d9012208212000fff758
:1057b8009bf98023e0e7002ee1d1204a9542ded113
:1057c8000122d033102130001a70fff78df92d21f6
:1057d800200002f08ffef8bd1a4b9d421dd01a4bd7
:1057e8009d42dbd1012210213000fff77df9012213
:1057f8000f2106e0012210213000fff775f9012280
:105808000c210020fff770f9e5e701221021300094
:10581800fff76af901220d21f3e701221021300078
:10582800fff762f901220e21ebe7c04600000020d5
:105838007ffeffffb70b000028230000881300003d
:0c584800db050000983a0000204e000034
:020000040000fa
:10585400f0b585b002900392002901d0002805d14b
:10586400002083423bd0039a824238d00720374c31
:1058740065680540019509d0002902d00020ca07b7
:105884002dd4002b02d00020da0728d40298451e1c
:10589400a841404201400398451ea84104254042c6
:1058a4000340a07b28401cd1268a35432582994297
:1058b40000d2581a019d002d02d05b084908400807
:1058c4000125a67b2e42fcd000252f008f420ad151
:1058d40000281dd10223a27b1a42fcd0012005b06e
:1058e400f0bd208bdde7019e002e0bd1029ef65dfc
:1058f400268301370426002b12d10126a27b3242d3
:10590400fcd0e3e7029a7e00b65af605f60defe7ff
:10591400019aff26002a00d00d4e26830138e9e7bc
:10592400a27b3242fcd0268bb6b29d42ced26a1cf8
:105934009446019a002a03d1039a56556546c5e751
:10594400f605039a6d00f60dae52f7e70008004223
:04595400ff0100004f
:020000040000fa
:10595800f8b50400344804f0dcf90121200003f014
:10596800edf8324804f0d5f9314804f0d2f98c2228
:10597800520062432f4b304f9b18dc331a782f4b61
:10598800ff2a35d0242565435d19297d91422fd3ff
:105998000026200031002e7501f09eff200001f046
